:100000000C94F50A0C94070B0C94070B0C94070B3B
:100010000C94070B0C94070B0C94070B0C94070B18
:100020000C94070B0C94070B0C94070B0C94070B08
:100030000C94070B0C94070B0C94070B0C94070BF8
:100040000C94540B0C94070B0C94070B0C94070B9B
:100050000C94070B0C94070B0C94070B0C94070BD8
:100060000C94070B0C94070B2000000102030405FD
:10007000060708090A0B0C0D0E0F101112131415A8
:10008000161718191A1B1C1D1E1F20212223242598
:10009000262728292A2B2C2D2E2F30313233343588
:1000A000363738393A3B3C3D3E3F40414243444578
:1000B000464748494A4B4C4D4E4F50515253545568
:1000C000565758595A5B5C5D5E5F60616263000120
:1000D00002030405060708090A0B0C0D0E0F101188
:1000E00012131415161718191A1B1C1D1E1F202178
:1000F00022232425262728292A2B2C2D2E2F303168
:1001000032333435363738393A3B3C3D3E3F404157
:1001100042434445464748494A4B4C4D4E4F505147
:1001200052535455565758595A5B5C5D5E5F606137
:100130006263000102030405060708090A0B0C0D9F
:100140000E0F101112131415161718191A1B1C1D57
:100150001E1F202122232425262728292A2B2C2D47
:100160002E2F303132333435363738393A3B3C3D37
:100170003E3F404142434445464748494A4B4C4D27
:100180004E4F505152535455565758595A5B5C5D17
:100190005E5F6061626300010203040506070809EF
:1001A0000A0B0C0D0E0F1011121314151617181937
:1001B0001A1B1C1D1E1F2021222324252627282927
:1001C0002A2B2C2D2E2F3031323334353637383917
:1001D0003A3B3C3D3E3F4041424344454647484907
:1001E0004A4B4C4D4E4F50515253545556575859F7
:1001F0005A5B5C5D5E5F606162630001020304053F
:10020000060708090A0B0C0D0E0F10111213141516
:10021000161718191A1B1C1D1E1F20212223242506
:10022000262728292A2B2C2D2E2F303132333435F6
:10023000363738393A3B3C3D3E3F404142434445E6
:10024000464748494A4B4C4D4E4F505152535455D6
:10025000565758595A5B5C5D5E5F6061626300018E
:1002600002030405060708090A0B0C0D0E0F1011F6
:1002700012131415161718191A1B1C1D1E1F2021E6
:1002800022232425262728292A2B2C2D2E2F3031D6
:1002900032333435363738393A3B3C3D3E3F4041C6
:1002A00042434445464748494A4B4C4D4E4F5051B6
:1002B00052535455565758595A5B5C5D5E5F6061A6
:1002C0006263000102030405060708090A0B0C0D0E
:1002D0000E0F101112131415161718191A1B1C1DC6
:1002E0001E1F202122232425262728292A2B2C2DB6
:1002F0002E2F303132333435363738393A3B3C3DA6
:100300003E3F404142434445464748494A4B4C4D95
:100310004E4F505152535455565758595A5B5C5D85
:100320005E5F60616263000102030405060708095D
:100330000A0B0C0D0E0F10111213141516171819A5
:100340001A1B1C1D1E1F2021222324252627282995
:100350002A2B2C2D2E2F3031323334353637383985
:100360003A3B3C3D3E3F4041424344454647484975
:100370004A4B4C4D4E4F5051525354555657585965
:100380005A5B5C5D5E5F60616263000102030405AD
:10039000060708090A0B0C0D0E0F10111213141585
:1003A000161718191A1B1C1D1E1F20212223242575
:1003B000262728292A2B2C2D2E2F30313233343565
:1003C000363738393A3B3C3D3E3F40414243444555
:1003D000464748494A4B4C4D4E4F50515253545545
:1003E000565758595A5B5C5D5E5F606162630001FD
:1003F00002030405060708090A0B0C0D0E0F101165
:1004000012131415161718191A1B1C1D1E1F202154
:1004100022232425262728292A2B2C2D2E2F303144
:1004200032333435363738393A3B3C3D3E3F404134
:1004300042434445464748494A4B4C4D4E4F505124
:1004400052535455565758595A5B5C5D5E5F606114
:100450006263000102030405060708090A0B0C0D7C
:100460000E0F101112131415161718191A1B1C1D34
:100470001E1F202122232425262728292A2B2C2D24
:100480002E2F303132333435363738393A3B3C3D14
:100490003E3F404142434445464748494A4B4C4D04
:1004A0004E4F505152535455565758595A5B5C5DF4
:1004B0005E5F6061626300010203040506070809CC
:1004C0000A0B0C0D0E0F1011121314151617181914
:1004D0001A1B1C1D1E1F2021222324252627282904
:1004E0002A2B2C2D2E2F30313233343536373839F4
:1004F0003A3B3C3D3E3F40414243444546474849E4
:100500004A4B4C4D4E4F50515253545556575859D3
:100510005A5B5C5D5E5F606162630001020304051B
:10052000060708090A0B0C0D0E0F101112131415F3
:10053000161718191A1B1C1D1E1F202122232425E3
:10054000262728292A2B2C2D2E2F303132333435D3
:10055000363738393A3B3C3D3E3F404142434445C3
:10056000464748494A4B4C4D4E4F505152535455B3
:10057000565758595A5B5C5D5E5F6061626300016B
:1005800002030405060708090A0B0C0D0E0F1011D3
:1005900012131415161718191A1B1C1D1E1F2021C3
:1005A00022232425262728292A2B2C2D2E2F3031B3
:1005B00032333435363738393A3B3C3D3E3F4041A3
:1005C00042434445464748494A4B4C4D4E4F505193
:1005D00052535455565758595A5B5C5D5E5F606183
:1005E0006263000102030405060708090A0B0C0DEB
:1005F0000E0F101112131415161718191A1B1C1DA3
:100600001E1F202122232425262728292A2B2C2D92
:100610002E2F303132333435363738393A3B3C3D82
:100620003E3F404142434445464748494A4B4C4D72
:100630004E4F505152535455565758595A5B5C5D62
:100640005E5F60616263000102030405060708093A
:100650000A0B0C0D0E0F1011121314151617181982
:100660001A1B1C1D1E1F2021222324252627282972
:100670002A2B2C2D2E2F3031323334353637383962
:100680003A3B3C3D3E3F4041424344454647484952
:100690004A4B4C4D4E4F5051525354555657585942
:1006A0005A5B5C5D5E5F606162630001020304058A
:1006B000060708090A0B0C0D0E0F10111213141562
:1006C000161718191A1B1C1D1E1F20212223242552
:1006D000262728292A2B2C2D2E2F30313233343542
:1006E000363738393A3B3C3D3E3F40414243444532
:1006F000464748494A4B4C4D4E4F50515253545522
:10070000565758595A5B5C5D5E5F606162630001D9
:1007100002030405060708090A0B0C0D0E0F101141
:1007200012131415161718191A1B1C1D1E1F202131
:1007300022232425262728292A2B2C2D2E2F303121
:1007400032333435363738393A3B3C3D3E3F404111
:1007500042434445464748494A4B4C4D4E4F505101
:1007600052535455565758595A5B5C5D5E5F6061F1
:100770006263000102030405060708090A0B0C0D59
:100780000E0F101112131415161718191A1B1C1D11
:100790001E1F202122232425262728292A2B2C2D01
:1007A0002E2F303132333435363738393A3B3C3DF1
:1007B0003E3F404142434445464748494A4B4C4DE1
:1007C0004E4F505152535455565758595A5B5C5DD1
:1007D0005E5F6061626300010203040506070809A9
:1007E0000A0B0C0D0E0F10111213141516171819F1
:1007F0001A1B1C1D1E1F20212223242526272829E1
:100800002A2B2C2D2E2F30313233343536373839D0
:100810003A3B3C3D3E3F40414243444546474849C0
:100820004A4B4C4D4E4F50515253545556575859B0
:100830005A5B5C5D5E5F60616263000102030405F8
:10084000060708090A0B0C0D0E0F101112131415D0
:10085000161718191A1B1C1D1E1F202122232425C0
:10086000262728292A2B2C2D2E2F303132333435B0
:10087000363738393A3B3C3D3E3F404142434445A0
:10088000464748494A4B4C4D4E4F50515253545590
:10089000565758595A5B5C5D5E5F60616263000148
:1008A00002030405060708090A0B0C0D0E0F1011B0
:1008B00012131415161718191A1B1C1D1E1F2021A0
:1008C00022232425262728292A2B2C2D2E2F303190
:1008D00032333435363738393A3B3C3D3E3F404180
:1008E00042434445464748494A4B4C4D4E4F505170
:1008F00052535455565758595A5B5C5D5E5F606160
:100900006263000102030405060708090A0B0C0DC7
:100910000E0F101112131415161718191A1B1C1D7F
:100920001E1F202122232425262728292A2B2C2D6F
:100930002E2F303132333435363738393A3B3C3D5F
:100940003E3F404142434445464748494A4B4C4D4F
:100950004E4F505152535455565758595A5B5C5D3F
:100960005E5F606162630001020304050607080917
:100970000A0B0C0D0E0F101112131415161718195F
:100980001A1B1C1D1E1F202122232425262728294F
:100990002A2B2C2D2E2F303132333435363738393F
:1009A0003A3B3C3D3E3F404142434445464748492F
:1009B0004A4B4C4D4E4F505152535455565758591F
:1009C0005A5B5C5D5E5F6061626300010203040567
:1009D000060708090A0B0C0D0E0F1011121314153F
:1009E000161718191A1B1C1D1E1F2021222324252F
:1009F000262728292A2B2C2D2E2F3031323334351F
:100A0000363738393A3B3C3D3E3F4041424344450E
:100A1000464748494A4B4C4D4E4F505152535455FE
:100A2000565758595A5B5C5D5E5F606162630001B6
:100A300002030405060708090A0B0C0D0E0F10111E
:100A400012131415161718191A1B1C1D1E1F20210E
:100A500022232425262728292A2B2C2D2E2F3031FE
:100A600032333435363738393A3B3C3D3E3F4041EE
:100A700042434445464748494A4B4C4D4E4F5051DE
:100A800052535455565758595A5B5C5D5E5F6061CE
:100A90006263000102030405060708090A0B0C0D36
:100AA0000E0F101112131415161718191A1B1C1DEE
:100AB0001E1F202122232425262728292A2B2C2DDE
:100AC0002E2F303132333435363738393A3B3C3DCE
:100AD0003E3F404142434445464748494A4B4C4DBE
:100AE0004E4F505152535455565758595A5B5C5DAE
:100AF0005E5F606162630001020304050607080986
:100B00000A0B0C0D0E0F10111213141516171819CD
:100B10001A1B1C1D1E1F20212223242526272829BD
:100B20002A2B2C2D2E2F30313233343536373839AD
:100B30003A3B3C3D3E3F404142434445464748499D
:100B40004A4B4C4D4E4F505152535455565758598D
:100B50005A5B5C5D5E5F60616263000102030405D5
:100B6000060708090A0B0C0D0E0F101112131415AD
:100B7000161718191A1B1C1D1E1F2021222324259D
:100B8000262728292A2B2C2D2E2F3031323334358D
:100B9000363738393A3B3C3D3E3F4041424344457D
:100BA000464748494A4B4C4D4E4F5051525354556D
:100BB000565758595A5B5C5D5E5F60616263000125
:100BC00002030405060708090A0B0C0D0E0F10118D
:100BD00012131415161718191A1B1C1D1E1F20217D
:100BE00022232425262728292A2B2C2D2E2F30316D
:100BF00032333435363738393A3B3C3D3E3F40415D
:100C000042434445464748494A4B4C4D4E4F50514C
:100C100052535455565758595A5B5C5D5E5F60613C
:100C20006263000102030405060708090A0B0C0DA4
:100C30000E0F101112131415161718191A1B1C1D5C
:100C40001E1F202122232425262728292A2B2C2D4C
:100C50002E2F303132333435363738393A3B3C3D3C
:100C60003E3F404142434445464748494A4B4C4D2C
:100C70004E4F505152535455565758595A5B5C5D1C
:100C80005E5F6061626300010203040506070809F4
:100C90000A0B0C0D0E0F101112131415161718193C
:100CA0001A1B1C1D1E1F202122232425262728292C
:100CB0002A2B2C2D2E2F303132333435363738391C
:100CC0003A3B3C3D3E3F404142434445464748490C
:100CD0004A4B4C4D4E4F50515253545556575859FC
:100CE0005A5B5C5D5E5F6061626300010203040544
:100CF000060708090A0B0C0D0E0F1011121314151C
:100D0000161718191A1B1C1D1E1F2021222324250B
:100D1000262728292A2B2C2D2E2F303132333435FB
:100D2000363738393A3B3C3D3E3F404142434445EB
:100D3000464748494A4B4C4D4E4F505152535455DB
:100D4000565758595A5B5C5D5E5F60616263000193
:100D500002030405060708090A0B0C0D0E0F1011FB
:100D600012131415161718191A1B1C1D1E1F2021EB
:100D700022232425262728292A2B2C2D2E2F3031DB
:100D800032333435363738393A3B3C3D3E3F4041CB
:100D900042434445464748494A4B4C4D4E4F5051BB
:100DA00052535455565758595A5B5C5D5E5F6061AB
:100DB0006263000102030405060708090A0B0C0D13
:100DC0000E0F101112131415161718191A1B1C1DCB
:100DD0001E1F202122232425262728292A2B2C2DBB
:100DE0002E2F303132333435363738393A3B3C3DAB
:100DF0003E3F404142434445464748494A4B4C4D9B
:100E00004E4F505152535455565758595A5B5C5D8A
:100E10005E5F606162630001020304050607080962
:100E20000A0B0C0D0E0F10111213141516171819AA
:100E30001A1B1C1D1E1F202122232425262728299A
:100E40002A2B2C2D2E2F303132333435363738398A
:100E50003A3B3C3D3E3F404142434445464748497A
:100E60004A4B4C4D4E4F505152535455565758596A
:100E70005A5B5C5D5E5F60616263000102030405B2
:100E8000060708090A0B0C0D0E0F1011121314158A
:100E9000161718191A1B1C1D1E1F2021222324257A
:100EA000262728292A2B2C2D2E2F3031323334356A
:100EB000363738393A3B3C3D3E3F4041424344455A
:100EC000464748494A4B4C4D4E4F5051525354554A
:100ED000565758595A5B5C5D5E5F60616263000102
:100EE00002030405060708090A0B0C0D0E0F10116A
:100EF00012131415161718191A1B1C1D1E1F20215A
:100F000022232425262728292A2B2C2D2E2F303149
:100F100032333435363738393A3B3C3D3E3F404139
:100F200042434445464748494A4B4C4D4E4F505129
:100F300052535455565758595A5B5C5D5E5F606119
:100F40006263000102030405060708090A0B0C0D81
:100F50000E0F101112131415161718191A1B1C1D39
:100F60001E1F202122232425262728292A2B2C2D29
:100F70002E2F303132333435363738393A3B3C3D19
:100F80003E3F404142434445464748494A4B4C4D09
:100F90004E4F505152535455565758595A5B5C5DF9
:100FA0005E5F6061626300010203040506070809D1
:100FB0000A0B0C0D0E0F1011121314151617181919
:100FC0001A1B1C1D1E1F2021222324252627282909
:100FD0002A2B2C2D2E2F30313233343536373839F9
:100FE0003A3B3C3D3E3F40414243444546474849E9
:100FF0004A4B4C4D4E4F50515253545556575859D9
:101000005A5B5C5D5E5F6061626300010203040520
:10101000060708090A0B0C0D0E0F101112131415F8
:10102000161718191A1B1C1D1E1F202122232425E8
:10103000262728292A2B2C2D2E2F303132333435D8
:10104000363738393A3B3C3D3E3F404142434445C8
:10105000464748494A4B4C4D4E4F505152535455B8
:10106000565758595A5B5C5D5E5F60616263000170
:1010700002030405060708090A0B0C0D0E0F1011D8
:1010800012131415161718191A1B1C1D1E1F2021C8
:1010900022232425262728292A2B2C2D2E2F3031B8
:1010A00032333435363738393A3B3C3D3E3F4041A8
:1010B00042434445464748494A4B4C4D4E4F505198
:1010C00052535455565758595A5B5C5D5E5F606188
:1010D0006263000102030405060708090A0B0C0DF0
:1010E0000E0F101112131415161718191A1B1C1DA8
:1010F0001E1F202122232425262728292A2B2C2D98
:101100002E2F303132333435363738393A3B3C3D87
:101110003E3F404142434445464748494A4B4C4D77
:101120004E4F505152535455565758595A5B5C5D67
:101130005E5F60616263000102030405060708093F
:101140000A0B0C0D0E0F1011121314151617181987
:101150001A1B1C1D1E1F2021222324252627282977
:101160002A2B2C2D2E2F3031323334353637383967
:101170003A3B3C3D3E3F4041424344454647484957
:101180004A4B4C4D4E4F5051525354555657585947
:101190005A5B5C5D5E5F606162630001020304058F
:1011A000060708090A0B0C0D0E0F10111213141567
:1011B000161718191A1B1C1D1E1F20212223242557
:1011C000262728292A2B2C2D2E2F30313233343547
:1011D000363738393A3B3C3D3E3F40414243444537
:1011E000464748494A4B4C4D4E4F50515253545527
:1011F000565758595A5B5C5D5E5F606162630001DF
:1012000002030405060708090A0B0C0D0E0F101146
:1012100012131415161718191A1B1C1D1E1F202136
:1012200022232425262728292A2B2C2D2E2F303126
:1012300032333435363738393A3B3C3D3E3F404116
:1012400042434445464748494A4B4C4D4E4F505106
:1012500052535455565758595A5B5C5D5E5F6061F6
:101260006263000102030405060708090A0B0C0D5E
:101270000E0F101112131415161718191A1B1C1D16
:101280001E1F202122232425262728292A2B2C2D06
:101290002E2F303132333435363738393A3B3C3DF6
:1012A0003E3F404142434445464748494A4B4C4DE6
:1012B0004E4F505152535455565758595A5B5C5DD6
:1012C0005E5F6061626300010203040506070809AE
:1012D0000A0B0C0D0E0F10111213141516171819F6
:1012E0001A1B1C1D1E1F20212223242526272829E6
:1012F0002A2B2C2D2E2F30313233343536373839D6
:101300003A3B3C3D3E3F40414243444546474849C5
:101310004A4B4C4D4E4F50515253545556575859B5
:101320005A5B5C5D5E5F60616263000102030405FD
:10133000060708090A0B0C0D0E0F101112131415D5
:10134000161718191A1B1C1D1E1F202122232425C5
:10135000262728292A2B2C2D2E2F303132333435B5
:10136000363738393A3B3C3D3E3F404142434445A5
:10137000464748494A4B4C4D4E4F50515253545595
:10138000565758595A5B5C5D5E5F6061626300014D
:1013900002030405060708090A0B0C0D0E0F1011B5
:1013A00012131415161718191A1B1C1D1E1F2021A5
:1013B00022232425262728292A2B2C2D2E2F303195
:1013C00032333435363738393A3B3C3D3E3F404185
:1013D00042434445464748494A4B4C4D4E4F505175
:1013E00052535455565758595A5B5C5D5E5F606165
:1013F0006263000102030405060708090A0B0C0DCD
:101400000E0F101112131415161718191A1B1C1D84
:101410001E1F202122232425262728292A2B2C2D74
:101420002E2F303132333435363738393A3B3C3D64
:101430003E3F404142434445464748494A4B4C4D54
:101440004E4F505152535455565758595A5B5C5D44
:101450005E5F60616263000102030405060708091C
:101460000A0B0C0D0E0F1011121314151617181964
:101470001A1B1C1D1E1F2021222324252627282954
:101480002A2B2C2D2E2F3031323334353637383944
:101490003A3B3C3D3E3F4041424344454647484934
:1014A0004A4B4C4D4E4F5051525354555657585924
:1014B0005A5B5C5D5E5F606162630001020304056C
:1014C000060708090A0B0C0D0E0F10111213141544
:1014D000161718191A1B1C1D1E1F20212223242534
:1014E000262728292A2B2C2D2E2F30313233343524
:1014F000363738393A3B3C3D3E3F40414243444514
:10150000464748494A4B4C4D4E4F50515253545503
:10151000565758595A5B5C5D5E5F606162630001BB
:1015200002030405060708090A0B0C0D0E0F101123
:1015300012131415161718191A1B1C1D1E1F202113
:1015400022232425262728292A2B2C2D2E2F303103
:1015500032333435363738393A3B3C3D3E3F4041F3
:1015600042434445464748494A4B4C4D4E4F5051E3
:1015700052535455565758595A5B5C5D5E5F6061D3
:101580006263000102030405060708090A0B0C0D3B
:101590000E0F101112131415161718191A1B1C1DF3
:1015A0001E1F202122232425262728292A2B2C2DE3
:1015B0002E2F303132333435363738393A3B3C3DD3
:1015C0003E3F404142434445464748494A4B4C4DC3
:1015D0004E4F505152535455565758595A5B5C5DB3
:1015E0005E5F606162630001020311241FBECFEFE2
:1015F000D8E0DEBFCDBF21E0A0E0B1E001C01D9288
:10160000A131B207E1F70E94090B0C94270C0C944E
:1016100000008FEF84B98FED87B98EEF8AB91092F1
:1016200002012BEA20930E0192E09093030180E5E2
:101630008093040125B998B98BB983E085BD16BCA8
:1016400081E080936E007894A5E0B1E082E090E0C4
:10165000FC01E859FF4FE491ED9301968A30910522
:10166000B9F7E8E6F0E02491E9E6F0E0E4919E2F96
:1016700080E0822B9093100180930F01813B924078
:1016800030F080EB92E09093100180930F0181E0A5
:1016900090E090930101809300018FEC97E0019717
:1016A000F1F700C00000F9CF1F920F920FB60F9212
:1016B00011242F933F938F939F93AF93BF93EF93F7
:1016C000FF9380910E0185B98091030188B98091C3
:1016D00004018BB983E886BD8BEA80930E0182E01A
:1016E0008093030180E58093040120910201922FF1
:1016F0009770E92FF0E0EB5FFE4F80819330C1F0EF
:1017000020F4913069F080F408C09530C9F0A0F061
:101710009630D1F09730F9F41BC0109203011BC032
:101720009BE890930E0117C093EA90930E0113C0AB
:1017300099EA90930E010FC090E4909304010BC0BE
:101740009BE290930E0107C090E19093040103C0C7
:101750009AEA90930E0180FF05C090910401906871
:101760009093040181FF05C09091040190629093D1
:10177000040182FF05C090910E01906490930E01C8
:1017800083FF05C09091040198609093040184FF49
:1017900005C090910E01946090930E0185FF05C0E5
:1017A00090910E01906190930E0186FF05C090917B
:1017B000030191609093030188232CF4809103012D
:1017C0008460809303012F5F203519F0209302017C
:1017D00031C01092020180910001909101010196A7
:1017E000909301018093000120910F01309110012D
:1017F0008217930779F410920101109200010AC038
:10180000FC01E859FF4FE491ED930196A217B3074D
:10181000B9F710C08091000190910101880F991FC4
:10182000880F991F880F991F0296A5E0B1E02DE05F
:1018300031E0E6CFFF91EF91BF91AF919F918F91F2
:101840003F912F910F900FBE0F901F901895F89415
:02185000FFCFC8
:00000001FF
