S01200006372616368612D6C65642E737265634E
S11300000C94B4070C94C6070C94C6070C94C6074A
S11300100C94C6070C94C6070C94C6070C94C60728
S11300200C94C6070C94C6070C94C6070C94C60718
S11300300C94C6070C94C6070C94C6070C94C60708
S11300400C941E080C94C6070C94C6070C94C6079F
S11300500C94C6070C94C6070C94C6070C94C607E8
S11300600C94C6070C94C6070080C0D8F8FCFC7C2E
S11300707E3E3E3617070303010000FF8888887020
S113008000FF91919191008080FF8080000000002A
S1130090FF9191919100FF0101010100FF91919164
S11300A091008080FF808000FF909098966100FF0F
S11300B0003C428181814200030C7484740C03006F
S11300C0000000FE01010101FE00FF9090908000FD
S11300D0FF8888887000FF90909896610000010363
S11300E0030717363E3E7E7CFCFCF8D8C080000037
S11300F00000FFFFFF0000F8F8F80000DBDBDBDBAB
S1130100DBDBDB0000C0C0C0DFDFC0C0C00000001C
S113011000000000FE01010101FE00FF90909080AC
S113012000FF8888887000FF909098966100000016
S1130130002040FF0000007E8181817E007E81815D
S1130140817E00000000030C7484740C0300FF40E3
S1130150300C02FF003C42818181423C006291915B
S11301608989460000000000FF9090908000FF9174
S113017091919100FF0101010100FF00FF8888882F
S11301807000FF919191910000000000000000FFB9
S11301909191919100FF0101010100FF91919191D1
S11301A0008080FF808000FF909098966100FF009F
S11301B03C428181814200030C7484740C0300006E
S11301C00000000000FFFFFF0000F8F8F80000DB6B
S11301D0DBDBDBDBDBDB0000C0C0C0DFDFC0C0C0BB
S11301E000000000000000FF9090908000FF9191BB
S11301F0919100FF0101010100FF00FF88888870D0
S113020000FF91919191000000000000000000FFA8
S11302109191919100FF0101010100FF9191919150
S1130220008080FF808000FF909098966100FF001E
S11302303C428181814200030C7484740C030000ED
S11302400000000000000000FFFFFF0000F8F8F8C5
S11302500000DBDBDBDBDBDBDB0000C0C0C0DFDF9F
S1130260C0C0C0000000000000003C428181894AF7
S11302702C00FF0062919189894600FF9191919130
S113028000FF0101010100FF919191910000000024
S1130290FF8888887000FF91919191008080FF8091
S11302A08000000000FF9191919100FF0101010184
S11302B000FF91919191008080FF808000FF9090D9
S11302C098966100FF003C428181814200030C74D6
S11302D084740C0300000000000000000000000013
S11302E000000000000000003C428181894A2C008B
S11302F0FF0062919189894600FF9191919100FFDD
S11303000101010100FF9191919100000000FF881B
S113031088887000FF91919191008080FF80800017
S1130320000000FF9191919100FF0101010100FF84
S113033091919191008080FF808000FF9090989629
S11303406100FF003C428181814200030C7484748B
S11303500C0300000000000000000000000000008A
S1130360000000000000000000030C7484740C03FF
S113037000FF40300C02FF00FF818181423C00FFFE
S1130380909098966100FF9191919100629191896A
S113039089460062919189894600030C7484740C27
S11303A00300000000FF818181423C00030C74843F
S11303B0740C0300FF9191919100FF010101010070
S11303C0000000FF9191919100FF0101010100FFE4
S11303D091919191008080FF808000FF9090989689
S11303E06100FF003C428181814200030C748474EB
S11303F00C030000000000000000000000000000EA
S113040000030C7484740C0300FF40300C02FF00E2
S1130410FF818181423C00FF909098966100FF919A
S113042091919100629191898946006291918989A3
S11304304600030C7484740C0300000000000000E8
S1130440FF818181423C00030C7484740C0300FF1F
S11304509191919100FF0101010100000000000051
S11304600000000000000000FF91919191C03C0346
S11304700C7080700C033CC0030C7484740C030077
S1130480FF0101010100FF818181423C003C428166
S11304908181423C00000000FF601C031C60FF00DF
S11304A0FF9191919100FF10101010FF00FF0101C6
S11304B0010100000000FF9191919100FF010101F1
S11304C00100FF91919191008080FF808000FF9056
S11304D09098966100FF003C428181814200030CA8
S11304E07484740C03000000000000FF919191914A
S11304F0C03C030C7080700C033CC0030C74847407
S11305000C0300FF0101010100FF818181423C00D5
S11305103C42818181423C00000000FF601C031CBE
S113052060FF00FF9191919100FF10101010FF00E7
S1130530FF01010101000000FF9191919100FF0171
S113054001010100FF91919191008080FF80800062
S1130550FF909098966100FF003C428181814200A7
S1130560030C7484740C03000000FF8888887000F6
S1130570030C7484740C0300FE01010101FE00FFEE
S11305800101010100030C7484740C0300000000D9
S1130590FF8888887000FF91919191008080FF808E
S11305A08000000000FF9191919100FF0101010181
S11305B000FF91919191008080FF808000FF9090D6
S11305C098966100FF003C428181814200030C74D3
S11305D084740C0300000000000000000000000010
S11305E000000000000000000000FF888888700000
S11305F0030C7484740C0300FE01010101FE00FF6E
S11306000101010100030C7484740C030000000058
S1130610FF8888887000FF91919191008080FF800D
S11306208000000000FF9191919100FF0101010100
S113063000FF91919191008080FF808000FF909055
S113064098966100FF003C428181814200030C7452
S113065084740C030000000000000000000000008F
S11306600000000000000000FF90909896610003D5
S11306700C7484740C0300FF8888887000FF1010C9
S11306801010FF00030C7484740C0300FF9191910B
S11306909100FF0101010100000000FF81818142FE
S11306A03C00030C7484740C0300FF91919191003D
S11306B0FF0101010100000000FF9191919100FFF1
S11306C00101010100FF91919191008080FF8080E0
S11306D000FF909098966100FF003C428181814226
S11306E000030C7484740C0300000000000000007C
S11306F0000000000000FF909098966100030C74C5
S113070084740C0300FF8888887000FF1010101098
S1130710FF00030C7484740C0300FF919191910009
S1130720FF0101010100000000FF9191919100FF80
S11307300101010100FF91919191008080FF80806F
S113074000FF909098966100FF003C4281818142B5
S113075000030C7484740C0300000000000000000B
S11307600000000000000000C0300C030C30C0008A
S1130770FF003C4281818142008080FF8080003CF8
S113078042818181423C00FF909098966100000074
S113079000FF8888887000FF91919191008080FF0C
S11307A0808000000000FF9191919100FF01010100
S11307B00100FF91919191008080FF808000FF9063
S11307C09098966100FF003C428181814200030CB5
S11307D07484740C0300000000000000000000009A
S11307E0000000000000000000C0300C030C30C00A
S11307F000FF003C4281818142008080FF808000B4
S11308003C42818181423C00FF90909896610000B7
S11308100000FF8888887000FF919191910080808A
S1130820FF808000000000FF9191919100FF010181
S1130830010100FF91919191008080FF808000FF71
S1130840909098966100FF003C42818181420003B0
S11308500C7484740C03000000000000000000000D
S11308600000000000000000FF8888887000030C6E
S11308707484740C0300FE01010101FE00FF0101F8
S11308800101003C42818181423C00000000FF885C
S113089088887000FF91919191008080FF80800092
S11308A0000000FF9191919100FF0101010100FFFF
S11308B091919191008080FF808000FF90909896A4
S11308C06100FF003C428181814200030C74847406
S11308D00C03000000000000000000000000000005
S11308E00000000000000000FF8888887000030CEE
S11308F07484740C0300FE01010101FE00FF010178
S11309000101003C42818181423C00000000FF88DB
S113091088887000FF91919191008080FF80800011
S1130920000000FF9191919100FF0101010100FF7E
S113093091919191008080FF808000FF9090989623
S11309406100FF003C428181814200030C74847485
S11309500C03000000000000000000000000000084
S113096000000000000000003C428181894A2C0004
S1130970FE01010101FE00FF00FF0101010100FF72
S113098010101010FF00FF9191919100FF9090982A
S1130990966100FF601C031C60FF00FF9191919120
S11309A000000000FF8888887000FF9191919100F9
S11309B08080FF808000000000FF9191919100FFF2
S11309C00101010100FF91919191008080FF8080DD
S11309D000FF909098966100FF003C428181814223
S11309E000030C7484740C03000000000000000079
S11309F00000000000000000030C7484740C030069
S1130A00C0300C030C30C000030C7484740C03005D
S1130A10FF00000000FF8888887000FF9191919189
S1130A20008080FF808000000000FF919191910080
S1130A30FF0101010100FF91919191008080FF80ED
S1130A408000FF909098966100FF003C4281818174
S1130A504200030C7484740C0300000000000000C6
S1130A600000000000000000FF9191919100FF81BF
S1130A708181423C00FE01010101FE00030C7484EB
S1130A80740C0300FF909098966100FF818181426D
S1130A903C003C42818181423C00000000FF888888
S1130AA0887000FF91919191008080FF8080000008
S1130AB00000FF9191919100FF0101010100FF915C
S1130AC0919191008080FF808000FF9090989661C2
S1130AD000FF003C428181814200030C7484740C49
S1130AE003000000000000000000FF9191919100BC
S1130AF0FF818181423C00FE01010101FE00030CE3
S1130B007484740C0300FF909098966100FF8181B7
S1130B1081423C003C42818181423C00000000FF54
S1130B208888887000FF91919191008080FF808077
S1130B3000000000FF9191919100FF01010101006B
S1130B40FF91919191008080FF808000FF909098A8
S1130B50966100FF003C428181814200030C748451
S1130B60740C030000000000FF48848478003F10E8
S1130B7020001E2121211E00207FA000000000066D
S1130B800101FE00030C7484740C0300FF601C0359
S1130B901C60FF00FF9191919100629191898946B7
S1130BA000000000FF9191919100FF0101010100FB
S1130BB0FF91919191008080FF808000FF90909838
S1130BC0966100FF003C428181814200030C7484E1
S1130BD0740C03000000000000000000000000008E
S1130BE0000000000000FF48848478003F102000CB
S1130BF01E2121211E00207FA0000000000601010B
S1130C00FE00030C7484740C0300FF601C031C605E
S1130C10FF00FF91919191006291918989460000B2
S1130C200000FF9191919100FF0101010100FF91EA
S1130C30919191008080FF808000FF909098966150
S1130C4000FF003C428181814200030C7484740CD7
S1130C50030000000000000000000000000000008D
S1130C600000000000000000FF88888870003F102A
S1130C7020001E2121211E00207FA000000000FF73
S1130C800101010100FE01010101FE00FF000183D9
S1130C908DB1C18100000000FF9191919100FF018D
S1130CA001010100FF91919191008080FF808000FB
S1130CB0FF909098966100FF003C42818181420040
S1130CC0030C7484740C0300000000000000000096
S1130CD00000000000000000000000000000000010
S1130CE0000000000000FF88888870003F1020008A
S1130CF01E2121211E00207FA000000000FF010111
S1130D00010100FE01010101FE00FF0001838DB11C
S1130D10C18100000000FF9191919100FF01010148
S1130D200100FF91919191008080FF808000FF90ED
S1130D309098966100FF003C428181814200030C3F
S1130D407484740C03000000000000000000000024
S1130D50000000000000000000000000000000008F
S1130D600000000000000000FF88888870003F1029
S1130D7020001E2121211E00207FA000000000FF72
S1130D808888887000030C7484740C03003C4281CE
S1130D9081814200FF10101010FF00FF919191918A
S1130DA0003C4281818142003C42818181423C007D
S1130DB0000000FF9191919100FF0101010100FFEA
S1130DC091919191008080FF808000FF909098968F
S1130DD06100FF003C428181814200030C748474F1
S1130DE00C0300000000000000FF88888870003FAA
S1130DF01020001E2121211E00207FA000000000E1
S1130E00FF8888887000030C7484740C03003C42CF
S1130E108181814200FF10101010FF00FF91919119
S1130E2091003C4281818142003C42818181423C6B
S1130E3000000000FF9191919100FF010101010068
S1130E40FF91919191008080FF808000FF909098A5
S1130E50966100FF003C428181814200030C74844E
S1130E60740C030000000000FF88888870003F10A5
S1130E7020001E2121211E00207FA000000000FF71
S1130E80601C031C60FF00030C7484740C0300FFDB
S1130E90909098966100FF00030C7484740C030016
S1130EA0FF40300C02FF003C42818181423C000043
S1130EB00000FF9191919100FF0101010100FF9158
S1130EC0919191008080FF808000FF9090989661BE
S1130ED000FF003C428181814200030C7484740C45
S1130EE00300000000000000FF88888870003F10A5
S1130EF020001E2121211E00207FA000000000FFF1
S1130F00601C031C60FF00030C7484740C0300FF5A
S1130F10909098966100FF00030C7484740C030095
S1130F20FF40300C02FF003C42818181423C0000C2
S1130F300000FF9191919100FF0101010100FF91D7
S1130F40919191008080FF808000FF90909896613D
S1130F5000FF003C428181814200030C7484740CC4
S1130F60030000000000000011241FBECFEFD8E0F2
S1130F70DEBFCDBF22E0A0E0B1E001C01D92A530EC
S1130F80B207E1F70E94C8070C94D7080C9400003C
S1130F908FEF84B98FED87B98EEF8AB91092020171
S1130FA0109200018BEA8093040282E08093010195
S1130FB090E59093030199EA95B988B988E58BB9CE
S1130FC080E090E00E94C108C82FD0E0CF30D10566
S1130FD014F0C0E0D0E035990BC02196CF30D10594
S1130FE014F0C0E0D0E06C2F80E090E00E94C908CB
S1130FF0A4E0B1E080E090E03C2F2227F901E80F63
S1131000F91FE859FF4FE491ED930196811541E0F2
S11310109407A1F78FE785B987E088B988EF8BB982
S113102083E085BD16BC81E080936E0078948FECDC
S113103097E00197F1F700C00000F9CF1F920F92DB
S11310400FB60F9211242F933F938F939F93EF9397
S1131050FF938091040285B98091010188B9809140
S113106003018BB988EC86BD8BEA8093040282E08D
S11310708093010180E58093030120910001922F68
S1131080977030910201E32FE90FF0E0EC5FFE4F1F
S113109080819330C1F020F4913069F080F408C06D
S11310A09530C9F0A0F09630D1F09730F9F41BC018
S11310B0109201011BC09BE89093040217C093EAAD
S11310C09093040213C099EA909304020FC090E431
S11310D0909303010BC09BE29093040207C090E13C
S11310E09093030103C09AEA9093040280FF05C021
S11310F09091030190689093030181FF05C0909142
S1131100030190629093030182FF05C09091040251
S113111090649093040283FF05C09091030198604A
S11311209093030184FF05C090910402946090930E
S1131130040285FF05C0909104029061909304021B
S113114086FF05C09091010191609093010188236D
S11311502CF4809101018460809301012F5F20931E
S11311600001211103C03F5F30930201FF91EF9111
S11311709F918F913F912F910F900FBE0F901F90D1
S11311801895F999FECF92BD81BDF89A992780B53B
S11311900895262FF999FECF1FBA92BD81BD20BDB7
S11311A00FB6F894FA9AF99A0FBE01960895F89436
S10511B0FFCF6B
S9030000FC
