:1000000012C02CC02BC02AC029C028C027C026C0BF
:1000100025C0F2C023C022C021C020C01FC01EC006
:100020001DC01CC01BC011241FBECFE5D4E0DEBF25
:10003000CDBF10E0A0E6B0E0E8E0F4E002C005903B
:100040000D92A036B107D9F711E0A0E6B0E001C0EB
:100050001D92A536B107E1F76BD1D4C1D1CF0AC04B
:1000600081502FEF30E742E0215030404040E1F72F
:1000700000C000008823A1F70895CF93DF9383E1A8
:1000800091E0ABD18F3F09F0B4C083E191E060E033
:10009000ACD1C0E0D0E0CE016FEFA7D1CE01019688
:1000A00061E9A3D1CE01029661E99FD1CE01039609
:1000B00061E89BD1CE01049660E097D1CE01059610
:1000C0006FEF93D1CE01069661E08FD1CE010796F6
:1000D00061E08BD1CE01089661E087D1CE0109960F
:1000E00060E083D1CE010A966FEF7FD1CE010B96EF
:1000F00061E97BD1CE010C9661E977D1CE010D96F5
:1001000061E873D1CE010E9660E06FD1CE010F96FB
:1001100060E86BD1CE01409660E867D1CE01419690
:100120006FEF63D1CE01429660E85FD1CE01439676
:1001300060E85BD1CE01449660E057D1CE01459690
:100140006FEF53D1CE01469668E94FD1CE01479665
:1001500064E94BD1CE01489663E647D1CE0149967A
:1001600060E043D1CE014A966FEF3FD1CE014B966E
:1001700060E03BD1CE014C966EE737D1CE014D9673
:1001800061E833D1CE014E9661E82FD1CE014F9672
:1001900062E42BD1CE01809660E027D1CE0181961A
:1001A0006FE023D1CE01829660E71FD1CE01839606
:1001B00060E91BD1CE01849660E717D1CE01859608
:1001C0006FE013D1CE01869660E00FD1CE01879605
:1001D00060E00BD1A896C03FD10509F05CCFC0EF1D
:1001E000D0E0CE0160E001D1219681E0C030D80797
:1001F000C1F7DF91CF9108951F920F920FB60F9222
:1002000011242F938F939F93EF93FF938091640119
:1002100088BB8091610085BB8091630082BB88ECC4
:1002200082BF8BEA8093640182E08093610080E565
:1002300080936300809160008770E0916200E80F16
:10024000F0E0EC59FF4F20818430C1F0853038F464
:10025000823081F0833080F4813039F409C08630F7
:1002600089F0863068F0873089F01092610011C003
:100270008BE80DC083EA0BC089EA09C080E403C0A3
:100280008BE205C080E18093630003C08AEA80931B
:100290006401822F20FF05C09091630090689093C5
:1002A000630081FF05C090916300906290936300AA
:1002B00082FF05C09091640190649093640183FF74
:1002C00005C09091630098609093630084FF05C01F
:1002D0009091640194609093640185FF05C09091B2
:1002E000640190619093640186FF05C08091610074
:1002F00081608093610027FF05C080916100846068
:1003000080936100809160008F5F809360008823FC
:1003100029F4809162008F5F80936200FF91EF91DA
:100320009F918F912F910F900FBE0F901F90189556
:10033000CFEFC7BB8FED84BB8EEF81BB9EDE84E623
:1003400090E060E070E040E051E037D01092620051
:10035000109260008BEA8093640182E080936100D8
:1003600080E5809363009D9915C0C8BB83E085BB81
:1003700088EF82BB10BC83E389B988E18AB986E83B
:1003800080BDC5EA5F9BFECF6CB180E090E02DD0D0
:10039000CCB9F8CF8FE788BB87E085BB88EF82BBFD
:1003A00083E083BF12BE81E089BF78948FEC97E031
:1003B0000197F1F700C00000F9CFDC01CB01FC018F
:1003C000E199FECF06C0FFBBEEBBE09A31960DB2BD
:1003D0000D9241505040B8F70895E199FECF9FBB70
:1003E0008EBBE09A99278DB30895262FE199FECF11
:1003F0009FBB8EBB2DBB0FB6F894E29AE19A0FBE5D
:0804000001960895F894FFCF66
:00000001FF
